{"abi":[{"type":"constructor","inputs":[{"name":"_treasury","type":"address","internalType":"address"}],"stateMutability":"nonpayable"},{"type":"function","name":"MIN_DEPOSIT","inputs":[],"outputs":[{"name":"","type":"uint256","internalType":"uint256"}],"stateMutability":"view"},{"type":"function","name":"PROTOCOL_FEE_BPS","inputs":[],"outputs":[{"name":"","type":"uint256","internalType":"uint256"}],"stateMutability":"view"},{"type":"function","name":"TREASURY","inputs":[],"outputs":[{"name":"","type":"address","internalType":"address"}],"stateMutability":"view"},{"type":"function","name":"addMerchant","inputs":[{"name":"merchant","type":"address","internalType":"address"}],"outputs":[],"stateMutability":"nonpayable"},{"type":"function","name":"deposit","inputs":[],"outputs":[],"stateMutability":"payable"},{"type":"function","name":"emergencyWithdraw","inputs":[{"name":"to","type":"address","internalType":"address"},{"name":"amount","type":"uint256","internalType":"uint256"}],"outputs":[],"stateMutability":"nonpayable"},{"type":"function","name":"getBalance","inputs":[],"outputs":[{"name":"","type":"uint256","internalType":"uint256"}],"stateMutability":"view"},{"type":"function","name":"isMerchant","inputs":[{"name":"","type":"address","internalType":"address"}],"outputs":[{"name":"","type":"bool","internalType":"bool"}],"stateMutability":"view"},{"type":"function","name":"owner","inputs":[],"outputs":[{"name":"","type":"address","internalType":"address"}],"stateMutability":"view"},{"type":"function","name":"pause","inputs":[],"outputs":[],"stateMutability":"nonpayable"},{"type":"function","name":"paused","inputs":[],"outputs":[{"name":"","type":"bool","internalType":"bool"}],"stateMutability":"view"},{"type":"function","name":"removeMerchant","inputs":[{"name":"merchant","type":"address","internalType":"address"}],"outputs":[],"stateMutability":"nonpayable"},{"type":"function","name":"renounceOwnership","inputs":[],"outputs":[],"stateMutability":"nonpayable"},{"type":"function","name":"transferOwnership","inputs":[{"name":"newOwner","type":"address","internalType":"address"}],"outputs":[],"stateMutability":"nonpayable"},{"type":"function","name":"unpause","inputs":[],"outputs":[],"stateMutability":"nonpayable"},{"type":"function","name":"withdraw","inputs":[{"name":"amount","type":"uint256","internalType":"uint256"}],"outputs":[],"stateMutability":"nonpayable"},{"type":"event","name":"Deposit","inputs":[{"name":"from","type":"address","indexed":true,"internalType":"address"},{"name":"amount","type":"uint256","indexed":false,"internalType":"uint256"},{"name":"timestamp","type":"uint256","indexed":false,"internalType":"uint256"}],"anonymous":false},{"type":"event","name":"EmergencyWithdrawal","inputs":[{"name":"to","type":"address","indexed":true,"internalType":"address"},{"name":"amount","type":"uint256","indexed":false,"internalType":"uint256"},{"name":"timestamp","type":"uint256","indexed":false,"internalType":"uint256"}],"anonymous":false},{"type":"event","name":"MerchantAdded","inputs":[{"name":"merchant","type":"address","indexed":true,"internalType":"address"},{"name":"owner","type":"address","indexed":true,"internalType":"address"}],"anonymous":false},{"type":"event","name":"MerchantRemoved","inputs":[{"name":"merchant","type":"address","indexed":true,"internalType":"address"},{"name":"owner","type":"address","indexed":true,"internalType":"address"}],"anonymous":false},{"type":"event","name":"OwnershipTransferred","inputs":[{"name":"previousOwner","type":"address","indexed":true,"internalType":"address"},{"name":"newOwner","type":"address","indexed":true,"internalType":"address"}],"anonymous":false},{"type":"event","name":"Paused","inputs":[{"name":"account","type":"address","indexed":false,"internalType":"address"}],"anonymous":false},{"type":"event","name":"Unpaused","inputs":[{"name":"account","type":"address","indexed":false,"internalType":"address"}],"anonymous":false},{"type":"event","name":"Withdrawal","inputs":[{"name":"merchant","type":"address","indexed":true,"internalType":"address"},{"name":"amountReceived","type":"uint256","indexed":false,"internalType":"uint256"},{"name":"feeTaken","type":"uint256","indexed":false,"internalType":"uint256"},{"name":"timestamp","type":"uint256","indexed":false,"internalType":"uint256"}],"anonymous":false},{"type":"error","name":"AlreadyMerchant","inputs":[]},{"type":"error","name":"BelowMinDeposit","inputs":[]},{"type":"error","name":"EnforcedPause","inputs":[]},{"type":"error","name":"ExpectedPause","inputs":[]},{"type":"error","name":"FeeTransferFailed","inputs":[]},{"type":"error","name":"InsufficientBalance","inputs":[]},{"type":"error","name":"NotAuthorized","inputs":[]},{"type":"error","name":"NotMerchant","inputs":[]},{"type":"error","name":"OwnableInvalidOwner","inputs":[{"name":"owner","type":"address","internalType":"address"}]},{"type":"error","name":"OwnableUnauthorizedAccount","inputs":[{"name":"account","type":"address","internalType":"address"}]},{"type":"error","name":"ReentrancyGuardReentrantCall","inputs":[]},{"type":"error","name":"TransferFailed","inputs":[]},{"type":"error","name":"WithdrawTransferFailed","inputs":[]},{"type":"error","name":"ZeroAddress","inputs":[]}],"bytecode":{"object":"0x60a060405234801561000f575f5ffd5b50604051611615380380611615833981810160405281019061003191906102c6565b335f73ffffffffffffffffffffffffffffffffffffffff168173ffffffffffffffffffffffffffffffffffffffff16036100a2575f6040517f1e4fbdf70000000000000000000000000000000000000000000000000000000081526004016100999190610300565b60405180910390fd5b6100b18161017560201b60201c565b5060016100d06100c561023660201b60201c565b61025f60201b60201c565b5f01819055505f73ffffffffffffffffffffffffffffffffffffffff168173ffffffffffffffffffffffffffffffffffffffff160361013b576040517fd92e233d00000000000000000000000000000000000000000000000000000000815260040160405180910390fd5b8073ffffffffffffffffffffffffffffffffffffffff1660808173ffffffffffffffffffffffffffffffffffffffff168152505050610319565b5f5f5f9054906101000a900473ffffffffffffffffffffffffffffffffffffffff169050815f5f6101000a81548173ffffffffffffffffffffffffffffffffffffffff021916908373ffffffffffffffffffffffffffffffffffffffff1602179055508173ffffffffffffffffffffffffffffffffffffffff168173ffffffffffffffffffffffffffffffffffffffff167f8be0079c531659141344cd1fd0a4f28419497f9722a3daafe3b4186f6b6457e060405160405180910390a35050565b5f7f9b779b17422d0df92223018b32b4d1fa46e071723d6817e2486d003becc55f005f1b905090565b5f819050919050565b5f5ffd5b5f73ffffffffffffffffffffffffffffffffffffffff82169050919050565b5f6102958261026c565b9050919050565b6102a58161028b565b81146102af575f5ffd5b50565b5f815190506102c08161029c565b92915050565b5f602082840312156102db576102da610268565b5b5f6102e8848285016102b2565b91505092915050565b6102fa8161028b565b82525050565b5f6020820190506103135f8301846102f1565b92915050565b6080516112dd6103385f395f81816104a101526105fd01526112dd5ff3fe6080604052600436106100f2575f3560e01c80638456cb5911610089578063bf76c0ef11610058578063bf76c0ef146102be578063d0e30db0146102e6578063e1e158a5146102f0578063f2fde38b1461031a576100f2565b80638456cb591461022c5780638da5cb5b1461024257806395ccea671461026c578063be37822814610294576100f2565b80632e1a7d4d116100c55780632e1a7d4d146101ae5780633f4ba83a146101d65780635c975abb146101ec578063715018a614610216576100f2565b806312065fe0146100f6578063133adab6146101205780631a2f7167146101485780632d2c556514610184575b5f5ffd5b348015610101575f5ffd5b5061010a610342565b6040516101179190610f7c565b60405180910390f35b34801561012b575f5ffd5b5061014660048036038101906101419190610ff3565b610349565b005b348015610153575f5ffd5b5061016e60048036038101906101699190610ff3565b610482565b60405161017b9190611038565b60405180910390f35b34801561018f575f5ffd5b5061019861049f565b6040516101a59190611060565b60405180910390f35b3480156101b9575f5ffd5b506101d460048036038101906101cf91906110a3565b6104c3565b005b3480156101e1575f5ffd5b506101ea6107b9565b005b3480156101f7575f5ffd5b506102006107cb565b60405161020d9190611038565b60405180910390f35b348015610221575f5ffd5b5061022a6107e0565b005b348015610237575f5ffd5b506102406107f3565b005b34801561024d575f5ffd5b50610256610805565b6040516102639190611060565b60405180910390f35b348015610277575f5ffd5b50610292600480360381019061028d91906110ce565b61082c565b005b34801561029f575f5ffd5b506102a8610928565b6040516102b59190610f7c565b60405180910390f35b3480156102c9575f5ffd5b506102e460048036038101906102df9190610ff3565b61092d565b005b6102ee610acc565b005b3480156102fb575f5ffd5b50610304610b77565b6040516103119190610f7c565b60405180910390f35b348015610325575f5ffd5b50610340600480360381019061033b9190610ff3565b610b82565b005b5f47905090565b610351610c06565b60015f8273ffffffffffffffffffffffffffffffffffffffff1673ffffffffffffffffffffffffffffffffffffffff1681526020019081526020015f205f9054906101000a900460ff166103d1576040517f3b6405f400000000000000000000000000000000000000000000000000000000815260040160405180910390fd5b5f60015f8373ffffffffffffffffffffffffffffffffffffffff1673ffffffffffffffffffffffffffffffffffffffff1681526020019081526020015f205f6101000a81548160ff0219169083151502179055503373ffffffffffffffffffffffffffffffffffffffff168173ffffffffffffffffffffffffffffffffffffffff167fb3264511caa8fa143a89f96f9e50b979a61428ef14c153ce3294096f7081cc1660405160405180910390a350565b6001602052805f5260405f205f915054906101000a900460ff1681565b7f000000000000000000000000000000000000000000000000000000000000000081565b6104cb610c8d565b6104d3610caf565b60015f3373ffffffffffffffffffffffffffffffffffffffff1673ffffffffffffffffffffffffffffffffffffffff1681526020019081526020015f205f9054906101000a900460ff1615801561055d575061052d610805565b73ffffffffffffffffffffffffffffffffffffffff163373ffffffffffffffffffffffffffffffffffffffff1614155b15610594576040517fea8e4eb500000000000000000000000000000000000000000000000000000000815260040160405180910390fd5b5f6127106032836105a59190611139565b6105af91906111a7565b90505f81836105be91906111d7565b9050824710156105fa576040517ff4d678b800000000000000000000000000000000000000000000000000000000815260040160405180910390fd5b5f7f000000000000000000000000000000000000000000000000000000000000000073ffffffffffffffffffffffffffffffffffffffff168360405161063f90611237565b5f6040518083038185875af1925050503d805f8114610679576040519150601f19603f3d011682016040523d82523d5f602084013e61067e565b606091505b50509050806106b9576040517f4033e4e300000000000000000000000000000000000000000000000000000000815260040160405180910390fd5b5f3373ffffffffffffffffffffffffffffffffffffffff16836040516106de90611237565b5f6040518083038185875af1925050503d805f8114610718576040519150601f19603f3d011682016040523d82523d5f602084013e61071d565b606091505b5050905080610758576040517f69a4751b00000000000000000000000000000000000000000000000000000000815260040160405180910390fd5b3373ffffffffffffffffffffffffffffffffffffffff167f650fdf669e93aa6c8ff3defe2da9c12b64f1548e5e1e54e803f4c1beb6466c8e8486426040516107a29392919061124b565b60405180910390a2505050506107b6610cf0565b50565b6107c1610c06565b6107c9610d0a565b565b5f5f60149054906101000a900460ff16905090565b6107e8610c06565b6107f15f610d6b565b565b6107fb610c06565b610803610e2c565b565b5f5f5f9054906101000a900473ffffffffffffffffffffffffffffffffffffffff16905090565b610834610c06565b5f8273ffffffffffffffffffffffffffffffffffffffff168260405161085990611237565b5f6040518083038185875af1925050503d805f8114610893576040519150601f19603f3d011682016040523d82523d5f602084013e610898565b606091505b50509050806108d3576040517f90b8ec1800000000000000000000000000000000000000000000000000000000815260040160405180910390fd5b8273ffffffffffffffffffffffffffffffffffffffff167f56da9a5ae0bcf6e7c3fdd78a10550e7d0458de1c39bfb7f6e96a3e92dd344a68834260405161091b929190611280565b60405180910390a2505050565b603281565b610935610c06565b5f73ffffffffffffffffffffffffffffffffffffffff168173ffffffffffffffffffffffffffffffffffffffff160361099a576040517fd92e233d00000000000000000000000000000000000000000000000000000000815260040160405180910390fd5b60015f8273ffffffffffffffffffffffffffffffffffffffff1673ffffffffffffffffffffffffffffffffffffffff1681526020019081526020015f205f9054906101000a900460ff1615610a1b576040517f4fbf7ded00000000000000000000000000000000000000000000000000000000815260040160405180910390fd5b6001805f8373ffffffffffffffffffffffffffffffffffffffff1673ffffffffffffffffffffffffffffffffffffffff1681526020019081526020015f205f6101000a81548160ff0219169083151502179055503373ffffffffffffffffffffffffffffffffffffffff168173ffffffffffffffffffffffffffffffffffffffff167fe87d651528a048f986f55d996a630f6b7a7d1788e1dfb444abc5d19e82b8ede060405160405180910390a350565b610ad4610c8d565b610adc610caf565b66038d7ea4c68000341015610b1d576040517f96ec8e5400000000000000000000000000000000000000000000000000000000815260040160405180910390fd5b3373ffffffffffffffffffffffffffffffffffffffff167f90890809c654f11d6e72a28fa60149770a0d11ec6c92319d6ceb2bb0a4ea1a153442604051610b65929190611280565b60405180910390a2610b75610cf0565b565b66038d7ea4c6800081565b610b8a610c06565b5f73ffffffffffffffffffffffffffffffffffffffff168173ffffffffffffffffffffffffffffffffffffffff1603610bfa575f6040517f1e4fbdf7000000000000000000000000000000000000000000000000000000008152600401610bf19190611060565b60405180910390fd5b610c0381610d6b565b50565b610c0e610e8e565b73ffffffffffffffffffffffffffffffffffffffff16610c2c610805565b73ffffffffffffffffffffffffffffffffffffffff1614610c8b57610c4f610e8e565b6040517f118cdaa7000000000000000000000000000000000000000000000000000000008152600401610c829190611060565b60405180910390fd5b565b610c95610e95565b6002610ca7610ca2610ed6565b610eff565b5f0181905550565b610cb76107cb565b15610cee576040517fd93c066500000000000000000000000000000000000000000000000000000000815260040160405180910390fd5b565b6001610d02610cfd610ed6565b610eff565b5f0181905550565b610d12610f08565b5f5f60146101000a81548160ff0219169083151502179055507f5db9ee0a495bf2e6ff9c91a7834c1ba4fdd244a5e8aa4e537bd38aeae4b073aa610d54610e8e565b604051610d619190611060565b60405180910390a1565b5f5f5f9054906101000a900473ffffffffffffffffffffffffffffffffffffffff169050815f5f6101000a81548173ffffffffffffffffffffffffffffffffffffffff021916908373ffffffffffffffffffffffffffffffffffffffff1602179055508173ffffffffffffffffffffffffffffffffffffffff168173ffffffffffffffffffffffffffffffffffffffff167f8be0079c531659141344cd1fd0a4f28419497f9722a3daafe3b4186f6b6457e060405160405180910390a35050565b610e34610caf565b60015f60146101000a81548160ff0219169083151502179055507f62e78cea01bee320cd4e420270b5ea74000d11b0c9f74754ebdbfc544b05a258610e77610e8e565b604051610e849190611060565b60405180910390a1565b5f33905090565b610e9d610f48565b15610ed4576040517f3ee5aeb500000000000000000000000000000000000000000000000000000000815260040160405180910390fd5b565b5f7f9b779b17422d0df92223018b32b4d1fa46e071723d6817e2486d003becc55f005f1b905090565b5f819050919050565b610f106107cb565b610f46576040517f8dfc202b00000000000000000000000000000000000000000000000000000000815260040160405180910390fd5b565b5f6002610f5b610f56610ed6565b610eff565b5f015414905090565b5f819050919050565b610f7681610f64565b82525050565b5f602082019050610f8f5f830184610f6d565b92915050565b5f5ffd5b5f73ffffffffffffffffffffffffffffffffffffffff82169050919050565b5f610fc282610f99565b9050919050565b610fd281610fb8565b8114610fdc575f5ffd5b50565b5f81359050610fed81610fc9565b92915050565b5f6020828403121561100857611007610f95565b5b5f61101584828501610fdf565b91505092915050565b5f8115159050919050565b6110328161101e565b82525050565b5f60208201905061104b5f830184611029565b92915050565b61105a81610fb8565b82525050565b5f6020820190506110735f830184611051565b92915050565b61108281610f64565b811461108c575f5ffd5b50565b5f8135905061109d81611079565b92915050565b5f602082840312156110b8576110b7610f95565b5b5f6110c58482850161108f565b91505092915050565b5f5f604083850312156110e4576110e3610f95565b5b5f6110f185828601610fdf565b92505060206111028582860161108f565b9150509250929050565b7f4e487b71000000000000000000000000000000000000000000000000000000005f52601160045260245ffd5b5f61114382610f64565b915061114e83610f64565b925082820261115c81610f64565b915082820484148315176111735761117261110c565b5b5092915050565b7f4e487b71000000000000000000000000000000000000000000000000000000005f52601260045260245ffd5b5f6111b182610f64565b91506111bc83610f64565b9250826111cc576111cb61117a565b5b828204905092915050565b5f6111e182610f64565b91506111ec83610f64565b92508282039050818111156112045761120361110c565b5b92915050565b5f81905092915050565b50565b5f6112225f8361120a565b915061122d82611214565b5f82019050919050565b5f61124182611217565b9150819050919050565b5f60608201905061125e5f830186610f6d565b61126b6020830185610f6d565b6112786040830184610f6d565b949350505050565b5f6040820190506112935f830185610f6d565b6112a06020830184610f6d565b939250505056fea26469706673582212206f99b8c6a19c2b05a605427b61b221398b23193f434090166e56da75cec5368a64736f6c634300081e0033","linkReferences":{}},"methodIdentifiers":{"MIN_DEPOSIT()":"e1e158a5","PROTOCOL_FEE_BPS()":"be378228","TREASURY()":"2d2c5565","addMerchant(address)":"bf76c0ef","deposit()":"d0e30db0","emergencyWithdraw(address,uint256)":"95ccea67","getBalance()":"12065fe0","isMerchant(address)":"1a2f7167","owner()":"8da5cb5b","pause()":"8456cb59","paused()":"5c975abb","removeMerchant(address)":"133adab6","renounceOwnership()":"715018a6","transferOwnership(address)":"f2fde38b","unpause()":"3f4ba83a","withdraw(uint256)":"2e1a7d4d"},"id":26}